{
  "contractName": "register",
  "abi": [
    {
      "inputs": [
        {
          "internalType": "address",
          "name": "username",
          "type": "address"
        },
        {
          "internalType": "uint256",
          "name": "password",
          "type": "uint256"
        },
        {
          "internalType": "string",
          "name": "name",
          "type": "string"
        }
      ],
      "name": "signup",
      "outputs": [],
      "stateMutability": "nonpayable",
      "type": "function"
    },
    {
      "inputs": [],
      "name": "viewUsers",
      "outputs": [
        {
          "internalType": "address[]",
          "name": "",
          "type": "address[]"
        },
        {
          "internalType": "uint256[]",
          "name": "",
          "type": "uint256[]"
        },
        {
          "internalType": "string[]",
          "name": "",
          "type": "string[]"
        }
      ],
      "stateMutability": "view",
      "type": "function",
      "constant": true
    },
    {
      "inputs": [
        {
          "internalType": "address",
          "name": "username",
          "type": "address"
        },
        {
          "internalType": "uint256",
          "name": "password",
          "type": "uint256"
        }
      ],
      "name": "login",
      "outputs": [
        {
          "internalType": "bool",
          "name": "",
          "type": "bool"
        }
      ],
      "stateMutability": "view",
      "type": "function",
      "constant": true
    }
  ],
  "bytecode": "0x608060405234801561001057600080fd5b50610e59806100206000396000f3fe608060405234801561001057600080fd5b50600436106100415760003560e01c806314ebdb79146100465780637262381914610066578063fac27c4c14610096575b600080fd5b61004e6100b2565b60405161005d939291906107cd565b60405180910390f35b610080600480360381019061007b9190610885565b610275565b60405161008d91906108e0565b60405180910390f35b6100b060048036038101906100ab9190610a30565b61034e565b005b60608060606000600160028280548060200260200160405190810160405280929190818152602001828054801561013e57602002820191906000526020600020905b8160009054906101000a900473ffffffffffffffffffffffffffffffffffffffff1673ffffffffffffffffffffffffffffffffffffffff16815260200190600101908083116100f4575b505050505092508180548060200260200160405190810160405280929190818152602001828054801561019057602002820191906000526020600020905b81548152602001906001019080831161017c575b5050505050915080805480602002602001604051908101604052809291908181526020016000905b828210156102645783829060005260206000200180546101d790610ace565b80601f016020809104026020016040519081016040528092919081815260200182805461020390610ace565b80156102505780601f1061022557610100808354040283529160200191610250565b820191906000526020600020905b81548152906001019060200180831161023357829003601f168201915b5050505050815260200190600101906101b8565b505050509050925092509250909192565b600080600090505b600080549050811015610342578373ffffffffffffffffffffffffffffffffffffffff16600082815481106102b5576102b4610aff565b5b9060005260206000200160009054906101000a900473ffffffffffffffffffffffffffffffffffffffff1673ffffffffffffffffffffffffffffffffffffffff161480156103205750826001828154811061031357610312610aff565b5b9060005260206000200154145b1561032f576001915050610348565b808061033a90610b5d565b91505061027d565b60009150505b92915050565b600360008473ffffffffffffffffffffffffffffffffffffffff1673ffffffffffffffffffffffffffffffffffffffff16815260200190815260200160002060009054906101000a900460ff16156103a557600080fd5b6000839080600181540180825580915050600190039060005260206000200160009091909190916101000a81548173ffffffffffffffffffffffffffffffffffffffff021916908373ffffffffffffffffffffffffffffffffffffffff16021790555060018290806001815401808255809150506001900390600052602060002001600090919091909150556002819080600181540180825580915050600190039060005260206000200160009091909190915090816104659190610d51565b506001600360008573ffffffffffffffffffffffffffffffffffffffff1673ffffffffffffffffffffffffffffffffffffffff16815260200190815260200160002060006101000a81548160ff021916908315150217905550505050565b600081519050919050565b600082825260208201905092915050565b6000819050602082019050919050565b600073ffffffffffffffffffffffffffffffffffffffff82169050919050565b600061051a826104ef565b9050919050565b61052a8161050f565b82525050565b600061053c8383610521565b60208301905092915050565b6000602082019050919050565b6000610560826104c3565b61056a81856104ce565b9350610575836104df565b8060005b838110156105a657815161058d8882610530565b975061059883610548565b925050600181019050610579565b5085935050505092915050565b600081519050919050565b600082825260208201905092915050565b6000819050602082019050919050565b6000819050919050565b6105f2816105df565b82525050565b600061060483836105e9565b60208301905092915050565b6000602082019050919050565b6000610628826105b3565b61063281856105be565b935061063d836105cf565b8060005b8381101561066e57815161065588826105f8565b975061066083610610565b925050600181019050610641565b5085935050505092915050565b600081519050919050565b600082825260208201905092915050565b6000819050602082019050919050565b600081519050919050565b600082825260208201905092915050565b60005b838110156106e15780820151818401526020810190506106c6565b60008484015250505050565b6000601f19601f8301169050919050565b6000610709826106a7565b61071381856106b2565b93506107238185602086016106c3565b61072c816106ed565b840191505092915050565b600061074383836106fe565b905092915050565b6000602082019050919050565b60006107638261067b565b61076d8185610686565b93508360208202850161077f85610697565b8060005b858110156107bb578484038952815161079c8582610737565b94506107a78361074b565b925060208a01995050600181019050610783565b50829750879550505050505092915050565b600060608201905081810360008301526107e78186610555565b905081810360208301526107fb818561061d565b9050818103604083015261080f8184610758565b9050949350505050565b6000604051905090565b600080fd5b600080fd5b6108368161050f565b811461084157600080fd5b50565b6000813590506108538161082d565b92915050565b610862816105df565b811461086d57600080fd5b50565b60008135905061087f81610859565b92915050565b6000806040838503121561089c5761089b610823565b5b60006108aa85828601610844565b92505060206108bb85828601610870565b9150509250929050565b60008115159050919050565b6108da816108c5565b82525050565b60006020820190506108f560008301846108d1565b92915050565b600080fd5b600080fd5b7f4e487b7100000000000000000000000000000000000000000000000000000000600052604160045260246000fd5b61093d826106ed565b810181811067ffffffffffffffff8211171561095c5761095b610905565b5b80604052505050565b600061096f610819565b905061097b8282610934565b919050565b600067ffffffffffffffff82111561099b5761099a610905565b5b6109a4826106ed565b9050602081019050919050565b82818337600083830152505050565b60006109d36109ce84610980565b610965565b9050828152602081018484840111156109ef576109ee610900565b5b6109fa8482856109b1565b509392505050565b600082601f830112610a1757610a166108fb565b5b8135610a278482602086016109c0565b91505092915050565b600080600060608486031215610a4957610a48610823565b5b6000610a5786828701610844565b9350506020610a6886828701610870565b925050604084013567ffffffffffffffff811115610a8957610a88610828565b5b610a9586828701610a02565b9150509250925092565b7f4e487b7100000000000000000000000000000000000000000000000000000000600052602260045260246000fd5b60006002820490506001821680610ae657607f821691505b602082108103610af957610af8610a9f565b5b50919050565b7f4e487b7100000000000000000000000000000000000000000000000000000000600052603260045260246000fd5b7f4e487b7100000000000000000000000000000000000000000000000000000000600052601160045260246000fd5b6000610b68826105df565b91507fffffffffffffffffffffffffffffffffffffffffffffffffffffffffffffffff8203610b9a57610b99610b2e565b5b600182019050919050565b60008190508160005260206000209050919050565b60006020601f8301049050919050565b600082821b905092915050565b600060088302610c077fffffffffffffffffffffffffffffffffffffffffffffffffffffffffffffffff82610bca565b610c118683610bca565b95508019841693508086168417925050509392505050565b6000819050919050565b6000610c4e610c49610c44846105df565b610c29565b6105df565b9050919050565b6000819050919050565b610c6883610c33565b610c7c610c7482610c55565b848454610bd7565b825550505050565b600090565b610c91610c84565b610c9c818484610c5f565b505050565b5b81811015610cc057610cb5600082610c89565b600181019050610ca2565b5050565b601f821115610d0557610cd681610ba5565b610cdf84610bba565b81016020851015610cee578190505b610d02610cfa85610bba565b830182610ca1565b50505b505050565b600082821c905092915050565b6000610d2860001984600802610d0a565b1980831691505092915050565b6000610d418383610d17565b9150826002028217905092915050565b610d5a826106a7565b67ffffffffffffffff811115610d7357610d72610905565b5b610d7d8254610ace565b610d88828285610cc4565b600060209050601f831160018114610dbb5760008415610da9578287015190505b610db38582610d35565b865550610e1b565b601f198416610dc986610ba5565b60005b82811015610df157848901518255600182019150602085019450602081019050610dcc565b86831015610e0e5784890151610e0a601f891682610d17565b8355505b6001600288020188555050505b50505050505056fea26469706673582212209fb68f22e14d0333043ffe48dd481face933e56d785d60c452c0b60125c8984f64736f6c63430008130033",
  "immutableReferences": {},
  "source": "// SPDX-License-Identifier: MIT\npragma solidity >=0.4.22 <0.9.0;\n\ncontract register {\n  \n  address[] _usernames;\n  uint[] _passwords;\n  string[] _names;\n\n  mapping(address=>bool) _users;\n\n  function signup(address username,uint password,string memory name) public {\n\n    require(!_users[username]);\n\n    _usernames.push(username);\n    _passwords.push(password);\n    _names.push(name);\n\n    _users[username]=true;\n  }\n\n  function viewUsers() public view returns(address[] memory, uint[] memory, string[] memory){\n    return (_usernames,_passwords,_names);\n  }\n\n  function login(address username,uint password) public view returns(bool){\n\n    uint i;\n\n    for(i=0;i<_usernames.length;i++){\n      if(_usernames[i]==username && _passwords[i]==password){\n        return true;\n      }\n    }\n    return false;\n  }\n}\n",
  "sourcePath": "/Users/ms/Desktop/case-study-1/contracts/register.sol",
  "compiler": {
    "name": "solc",
    "version": "0.8.19+commit.7dd6d404.Emscripten.clang"
  },
  "schemaVersion": "3.4.16",
  "updatedAt": "2023-10-06T13:28:37.260Z",
  "networkType": "ethereum",
  "devdoc": {
    "kind": "dev",
    "methods": {},
    "version": 1
  },
  "userdoc": {
    "kind": "user",
    "methods": {},
    "version": 1
  }
}